:100000000C942A000C943C030C94FA020C94CC023D
:100010000C9447000C9447000C94C5010C944700C5
:100020000C9483030C948C010C9479030C946A0354
:100030000C9460030C9494030C9447000C944700B8
:100040000C943E020C9447000C9447000C948F02D1
:100050000C94470011241FBECFE5D8E0DEBFCDBF12
:1000600010E0A0E6B0E0ECEFFCE002C005900D92DD
:10007000AA3FB107D9F721E0AAEFB0E001C01D9275
:10008000A537B207E1F70E9449000C947C060C9456
:100090004E030E94DE000F2EC12CF2ECDF2EEE2468
:1000A000E394F12CF02D00E020E040E063E081E0FB
:1000B0000E94DB0380E00E94CC0381E00E94CC031D
:1000C00080E690E00E9443042FEF83ED90E32150FF
:1000D00080409040E1F700C000008DE890E00E9471
:1000E00043042FEF83ED90E3215080409040E1F7EF
:1000F00000C0000089EB90E00E9443042FEF83EDE5
:1001000090E3215080409040E1F700C0000089EC6E
:1001100090E00E9443042FEF83ED90E32150804054
:100120009040E1F700C00000FFCF9BB39E7F9BBBD8
:100130009BB39D7F9BBBEFECF7E03197F1F700C0DD
:1001400000009BB394609BBBEFECF7E03197F1F7B5
:1001500000C000009BB39F709BBB9BB3282F207FE8
:10016000922B9BBBEFECF7E03197F1F700C000005A
:100170009BB39B7F9BBBEFECF7E03197F1F700C09F
:1001800000009BB394609BBBEFECF7E03197F1F775
:1001900000C000009BB39F709BBB2BB3F0E18F9F0F
:1001A000C0011124822B8BBB8FEC97E00197F1F7F4
:1001B00000C000008BB38B7F8BBB08958AB3846033
:1001C0008ABB8AB381608ABB8AB382608ABB8AB3E6
:1001D000806F8ABB82E00E9495008FE00E949500AC
:1001E00088E20E94950081E00E94950008959BB3EB
:1001F00091609BBB9BB39D7F9BBBEFECF7E031977E
:10020000F1F700C000009BB394609BBBEFECF7E0FC
:100210003197F1F700C000009BB39F709BBB9BB36D
:10022000282F207F922B9BBBEFECF7E03197F1F763
:1002300000C000009BB39B7F9BBBEFECF7E03197C6
:10024000F1F700C000009BB394609BBBEFECF7E0BC
:100250003197F1F700C000009BB39F709BBB2BB39D
:10026000F0E18F9FC0011124822B8BBB8FEC97E0B4
:100270000197F1F700C000008BB38B7F8BBBEFECD5
:10028000F7E03197F1F700C0000008950F931F9336
:10029000CF938C01C0E003C0CF5F0E94F700F8014C
:1002A000EC0FF11D80818111F7CFCF911F910F913C
:1002B0000895CF93DF93CDB7DEB764970FB6F89468
:1002C000DEBF0FBECDBF2AE030E0AE014F5F5F4F13
:1002D0000E943006CE0101960E94460164960FB638
:1002E000F894DEBF0FBECDBFDF91CF91089581E0BE
:1002F0000E94950008950E94F90420E030E040EA51
:100300005BE30E9487052AE037ED43E25CE30E944D
:1003100058040E94CA0408951F920F920FB60F92BC
:1003200011248F939F93AF93BF9380910501909178
:100330000601A0910701B09108010397A105B1053D
:1003400041F41092050110920601109207011092DB
:1003500008018091050190910601A0910701B091DB
:1003600008010196A11DB11D80930501909306011E
:10037000A0930701B0930801BF91AF919F918F9116
:100380000F900FBE0F901F9018951F920F920FB6EF
:100390000F9211242F933F934F935F936F937F930B
:1003A0008F939F93AF93BF93EF93FF93809101013E
:1003B00090910201A0910301B0910401892B8A2B35
:1003C0008B2B51F510920501109206011092070136
:1003D0001092080126B587B590E0982F8827822BC8
:1003E000092E000CAA0BBB0B8093090190930A0104
:1003F000A0930B01B0930C0181E090E0A0E0B0E08D
:100400008093010190930201A0930301B093040132
:1004100080E00E948D0321C026B587B590E0982F1B
:100420008827822B092E000CAA0BBB0B8093FD00A2
:100430009093FE00A093FF00B093000182E090E053
:10044000A0E0B0E08093010190930201A09303012A
:10045000B093040180E40E948D03FF91EF91BF915E
:10046000AF919F918F917F916F915F914F913F914C
:100470002F910F900FBE0F901F9018951F920F9203
:100480000FB60F921124CF92DF92EF92FF922F932B
:100490003F934F935F936F937F938F939F93AF930C
:1004A000BF93EF93FF9384B1C5B0D12CDC2CCC2447
:1004B0000D2C000CEE08FF08C82A0E947701C70126
:1004C000B6010E947B010E945901FF91EF91BF91FB
:1004D000AF919F918F917F916F915F914F913F91DC
:1004E0002F91FF90EF90DF90CF900F900FBE0F9065
:1004F0001F90189586B7877086BF86B7806886BFBD
:1005000086B7806186BF089583B986B7877086BF36
:1005100086B7806886BF06B607FEFDCF08951F9296
:100520000F920FB60F9211242F933F934F935F9327
:100530006F937F938F939F93AF93BF93EF93FF93AB
:1005400081B1887F883159F0883281F0883099F400
:1005500080E40E9484028BB381608BBB0CC08BB3A0
:1005600082608BBB81E60E94840205C08BB38460ED
:100570008BBB0E947A02FF91EF91BF91AF919F9147
:100580008F917F916F915F914F913F912F910F903C
:100590000FBE0F901F9018951F920F920FB60F92DB
:1005A00011242F938F939F930AB605FE0EC09BB321
:1005B00084E089278BBB2FEF8DE399E421508040A5
:1005C0009040E1F700C000000DC09BB382E0892796
:1005D0008BBB2FEF8DE399E4215080409040E1F7F1
:1005E00000C000009F918F912F910F900FBE0F9030
:1005F0001F9018951F920F920FB60F9211248F9390
:100600009F938091FA009091FB00892B69F483E01D
:1006100089BD88EE88BD8091FA009091FB0001961B
:100620009093FB008093FA008091FA009091FB0078
:10063000019769F485E089BD8CED88BD8091FA0051
:100640009091FB0001969093FB008093FA008091BB
:10065000FA009091FB00029741F487E089BD80ED9C
:1006600088BD1092FB001092FA009F918F910F901D
:100670000FBE0F901F9018951F920F920FB60F92FA
:1006800011248F939F939BB381E089278BBB9F910C
:100690008F910F900FBE0F901F9018951F920F9281
:1006A0000FB60F9211248F939F939BB382E08927FB
:1006B0008BBB9F918F910F900FBE0F901F9018953D
:1006C0001F920F920FB60F9211240F900FBE0F9032
:1006D0001F9018951F920F920FB60F9211248F93AF
:1006E00088B3805888BB8F910F900FBE0F901F90DA
:1006F00018951F920F920FB60F9211240F900FBEF4
:100700000F901F9018951F920F920FB60F92112401
:100710000F900FBE0F901F9018959EB59F7B9EBDAA
:100720009EB5892B8EBD08951F920F920FB60F9222
:1007300011242F933F934F935F936F937F938F93E6
:100740009F93AF93BF93EF93FF93E091FC0061E021
:100750006E0F6093FC00F0E08CB1EF5EFE4F808383
:1007600081B3806881BB82B3806882BB70E080E027
:1007700090E00E945901FF91EF91BF91AF919F913D
:100780008F917F916F915F914F913F912F910F903A
:100790000FBE0F901F9018954AB1282F30E02D5FA3
:1007A0003F4F81E090E002C0880F991F2A95E2F741
:1007B000842B8AB90895BF92CF92DF92EF92FF9275
:1007C0000F931F93CF93DF93C82FD62FB42E122FE2
:1007D000813011F0A0E101C0A8E0B0E0A7019601CE
:1007E0000E9416069B01AC0160E072E18AE790E08E
:1007F0000E94F405DA01C9010197A109B109892F05
:100800009A2FAB2FBB2780BD215029B92BB18C2F3C
:1008100090E0880F991F822B8BB940B5212F30E0D3
:10082000220F331F220F331F220F331F50E1B59EBB
:10083000C001112450E4059F800111242068282B59
:10084000022B042B00BD20B59D2F9370892F90E0C3
:10085000880F991F822B806880BD8AB1D470D82BF5
:10086000DAB9DF91CF911F910F91FF90EF90DF9058
:10087000CF90BF9008955D9BFECF673011F49AB181
:100880009AB98CB908950F931F93CF938C01C0E050
:1008900005C063E090E00E943B04CF5FF801EC0FDD
:1008A000F11D80818111F5CFCF911F910F91089596
:1008B0000E946C040C944D050E94460558F00E945D
:1008C0003F0540F029F45F3F29F00C9436055111A3
:1008D0000C9481050C943C050E945E0568F39923F5
:1008E000B1F3552391F3951B550BBB27AA2762172C
:1008F0007307840738F09F5F5F4F220F331F441F39
:10090000AA1FA9F335D00E2E3AF0E0E832D091506C
:100910005040E695001CCAF72BD0FE2F29D0660F59
:10092000771F881FBB1F261737074807AB07B0E89C
:1009300009F0BB0B802DBF01FF2793585F4F3AF0A2
:100940009E3F510578F00C9436050C9481055F3F6D
:10095000E4F3983ED4F3869577956795B795F79528
:100960009F5FC9F7880F911D9695879597F9089510
:10097000E1E0660F771F881FBB1F621773078407AC
:10098000BA0720F0621B730B840BBA0BEE1F88F7BB
:10099000E09508950E94660588F09F5798F0B92F5A
:1009A0009927B751B0F0E1F0660F771F881F991FA4
:1009B0001AF0BA95C9F714C0B13091F00E948005C1
:1009C000B1E008950C948005672F782F8827B85FD1
:1009D00039F0B93FCCF3869577956795B395D9F7FC
:1009E0003EF490958095709561957F4F8F4F9F4F06
:1009F0000895E89409C097FB3EF490958095709512
:100A000061957F4F8F4F9F4F9923A9F0F92F96E95A
:100A1000BB279395F695879577956795B795F111CF
:100A2000F8CFFAF4BB0F11F460FF1BC06F5F7F4F6C
:100A30008F4F9F4F16C0882311F096E911C077237E
:100A400021F09EE8872F762F05C0662371F096E887
:100A5000862F70E060E02AF09A95660F771F881F56
:100A6000DAF7880F9695879597F9089597F99F6714
:100A700080E870E060E008959FEF80EC0895002426
:100A80000A941616170618060906089500240A94F3
:100A900012161306140605060895092E0394000C79
:100AA00011F4882352F0BB0F40F4BF2B11F460FF08
:100AB00004C06F5F7F4F8F4F9F4F089557FD905831
:100AC000440F551F59F05F3F71F04795880F97FB12
:100AD000991F61F09F3F79F08795089512161306CC
:100AE0001406551FF2CF4695F1DF08C016161706FB
:100AF0001806991FF1CF8695710561050894089530
:100B0000E894BB2766277727CB0197F908950E94C1
:100B10009A050C944D050E943F0538F00E94460549
:100B200020F0952311F00C9436050C943C0511240B
:100B30000C9481050E945E0570F3959FC1F3950F9B
:100B400050E0551F629FF001729FBB27F00DB11D51
:100B5000639FAA27F00DB11DAA1F649F6627B00DE1
:100B6000A11D661F829F2227B00DA11D621F739FCA
:100B7000B00DA11D621F839FA00D611D221F749FD8
:100B80003327A00D611D231F849F600D211D822F1F
:100B9000762F6A2F11249F5750409AF0F1F0882346
:100BA0004AF0EE0FFF1FBB1F661F771F881F915073
:100BB0005040A9F79E3F510580F00C9436050C94E7
:100BC00081055F3FE4F3983ED4F38695779567956A
:100BD000B795F795E7959F5FC1F7FE2B880F911D9D
:100BE0009695879597F90895A1E21A2EAA1BBB1B2B
:100BF000FD010DC0AA1FBB1FEE1FFF1FA217B307E9
:100C0000E407F50720F0A21BB30BE40BF50B661FFE
:100C1000771F881F991F1A9469F7609570958095C2
:100C200090959B01AC01BD01CF0108950E94210662
:100C3000A59F900DB49F900DA49F800D911D112430
:100C40000895A29FB001B39FC001A39F700D811DA5
:100C50001124911DB29F700D811D1124911D0895C5
:100C60002532310520F4223010F00C943B06FA01B5
:100C70001082CA010895BB272A3051F4992342F407
:100C8000BDE290958095709561957F4F8F4F9F4FF6
:100C90000C944B06BB27FA01A62F6217710581053C
:100CA0009105330B30FB66F0AA27660F771F881F6C
:100CB000991FAA1FA21710F0A21B63953850A9F71D
:100CC000A05DAA3308F0A95DA19336F7B111B193E5
:100CD0001082CA010C946C06DC01FC01672F719133
:100CE0007723E1F7329704C07C916D937083629112
:0C0CF000AE17BF07C8F30895F894FFCFBB
:100CFC0041542B43574A41505F4445463D22707343
:100D0C006132303230222C22726162626974656CFD
:100D1C0067407A6D6133303330220D0A0041542B19
:100D2C0043495053544152543D22544350222C2297
:100D3C006170692E7468696E67737065616B2E6380
:100D4C006F6D222C38300D0A0041542B43495053FF
:100D5C00454E443D34380D0A00474554202F7570DC
:100D6C00646174653F6170695F6B65793D4F3037C5
:100D7C0046325259313659373346564D4D266669EF
:0A0D8C00656C64313D37300D0A003C
:04000005008001096D
:00000001FF
